{
  "contractName": "CrowdFundFactory",
  "abi": [
    {
      "anonymous": false,
      "inputs": [
        {
          "indexed": false,
          "name": "newAddress",
          "type": "address"
        }
      ],
      "name": "ContractCreated",
      "type": "event"
    },
    {
      "constant": false,
      "inputs": [
        {
          "name": "raiseGoalAmount",
          "type": "uint256"
        },
        {
          "name": "payOutAddress",
          "type": "address"
        },
        {
          "name": "trusteesAddresses",
          "type": "address[]"
        },
        {
          "name": "allMilestones",
          "type": "uint256[]"
        },
        {
          "name": "durationInSeconds",
          "type": "uint256"
        },
        {
          "name": "milestoneVotingPeriodInSeconds",
          "type": "uint256"
        },
        {
          "name": "immediateFirstMilestonePayout",
          "type": "bool"
        }
      ],
      "name": "createCrowdFund",
      "outputs": [
        {
          "name": "",
          "type": "address"
        }
      ],
      "payable": false,
      "stateMutability": "nonpayable",
      "type": "function"
    }
  ],
  "bytecode": "0x608060405234801561001057600080fd5b50613684806100206000396000f300608060405260043610610041576000357c0100000000000000000000000000000000000000000000000000000000900463ffffffff16806350f74ec014610046575b600080fd5b34801561005257600080fd5b5061013760048036038101908080359060200190929190803573ffffffffffffffffffffffffffffffffffffffff16906020019092919080359060200190820180359060200190808060200260200160405190810160405280939291908181526020018383602002808284378201915050505050509192919290803590602001908201803590602001908080602002602001604051908101604052809392919081815260200183836020028082843782019150505050505091929192908035906020019092919080359060200190929190803515159060200190929190505050610179565b604051808273ffffffffffffffffffffffffffffffffffffffff1673ffffffffffffffffffffffffffffffffffffffff16815260200191505060405180910390f35b6000808888888888888861018b610368565b808881526020018773ffffffffffffffffffffffffffffffffffffffff1673ffffffffffffffffffffffffffffffffffffffff168152602001806020018060200186815260200185815260200184151515158152602001838103835288818151815260200191508051906020019060200280838360005b8381101561021d578082015181840152602081019050610202565b50505050905001838103825287818151815260200191508051906020019060200280838360005b8381101561025f578082015181840152602081019050610244565b505050509050019950505050505050505050604051809103906000f08015801561028d573d6000803e3d6000fd5b5090507fcf78cf0d6f3d8371e1075c69c492ab4ec5d8cf23a1a239b6a51a1d00be7ca31281604051808273ffffffffffffffffffffffffffffffffffffffff1673ffffffffffffffffffffffffffffffffffffffff16815260200191505060405180910390a160008190806001815401808255809150509060018203906000526020600020016000909192909190916101000a81548173ffffffffffffffffffffffffffffffffffffffff021916908373ffffffffffffffffffffffffffffffffffffffff1602179055505080915050979650505050505050565b6040516132e08061037983390190560060806040523480156200001157600080fd5b50604051620032e0380380620032e0833981018060405281019080805190602001909291908051906020019092919080518201929190602001805182019291906020018051906020019092919080519060200190929190805190602001909291905050506000806000670de0b6b3a76400008a1015151562000121576040517f08c379a00000000000000000000000000000000000000000000000000000000081526004018080602001828103825260228152602001807f526169736520676f616c20697320736d616c6c6572207468616e20312065746881526020017f657200000000000000000000000000000000000000000000000000000000000081525060400191505060405180910390fd5b6001885110158015620001365750600a885111155b1515620001d1576040517f08c379a00000000000000000000000000000000000000000000000000000000081526004018080602001828103825260398152602001807f5472757374656520616464726573736573206d757374206265206174206c656181526020017f7374203120616e64206e6f74206d6f7265207468616e2031300000000000000081525060400191505060405180910390fd5b6001875110158015620001e65750600a875111155b151562000281576040517f08c379a00000000000000000000000000000000000000000000000000000000081526004018080602001828103825260328152602001807f4d696c6573746f6e6573206d757374206265206174206c65617374203120616e81526020017f64206e6f74206d6f7265207468616e203130000000000000000000000000000081525060400191505060405180910390fd5b60009250600091505b865182101562000416578682815181101515620002a357fe5b9060200190602002015190506000811115156200034e576040517f08c379a00000000000000000000000000000000000000000000000000000000081526004018080602001828103825260278152602001807f4d696c6573746f6e6520616d6f756e74206d757374206265206772656174657281526020017f207468616e20300000000000000000000000000000000000000000000000000081525060400191505060405180910390fd5b6200037181846200059b6401000000000262002ad7179091906401000000009004565b9250600c6080604051908101604052808381526020016000815260200160008152602001600015158152509080600181540180825580915050906001820390600052602060002090600402016000909192909190915060008201518160000155602082015181600101556040820151816002015560608201518160030160006101000a81548160ff02191690831515021790555050505081806001019250506200028a565b8983141515620004b4576040517f08c379a00000000000000000000000000000000000000000000000000000000081526004018080602001828103825260258152602001807f4d696c6573746f6e6520746f74616c206d75737420657175616c20726169736581526020017f20676f616c00000000000000000000000000000000000000000000000000000081525060400191505060405180910390fd5b60016006819055508960038190555088600860006101000a81548173ffffffffffffffffffffffffffffffffffffffff021916908373ffffffffffffffffffffffffffffffffffffffff16021790555087600b90805190602001906200051c929190620005b8565b508542016002819055508460018190555083600060036101000a81548160ff02191690831515021790555060008060026101000a81548160ff021916908315150217905550600060078190555060008060016101000a81548160ff0219169083151502179055506000600481905550505050505050505050506200068d565b60008183019050828110151515620005af57fe5b80905092915050565b82805482825590600052602060002090810192821562000634579160200282015b82811115620006335782518260006101000a81548173ffffffffffffffffffffffffffffffffffffffff021916908373ffffffffffffffffffffffffffffffffffffffff16021790555091602001919060010190620005d9565b5b50905062000643919062000647565b5090565b6200068a91905b808211156200068657600081816101000a81549073ffffffffffffffffffffffffffffffffffffffff0219169055506001016200064e565b5090565b90565b612c43806200069d6000396000f300608060405260043610610175576000357c0100000000000000000000000000000000000000000000000000000000900463ffffffff168063054f7d9c1461017a57806318329822146101a95780631f6d4942146101d45780631fe4d9dd1461024157806326e6074b1461027057806329dcb0cf1461029b5780632b99d7e4146102c657806337b028ef146102ff57806338af3eed1461032a57806347680fca1461038157806351cff8d9146103c6578063590e1ae31461040957806369d596fc14610420578063717d63a41461044f5780637923de2a146104bc5780637b3e5e7b1461051357806383197ef01461053e578063966778061461055557806396b6a34e146105ba5780639d5b06f7146105e75780639ec45bbe146106125780639f5557981461063f578063a3e9436c146106ac578063d6383230146106d7578063d7bb99ba14610702578063d9a992431461070c578063e88329691461073b578063e89e4ed61461076a578063f4163340146107c4575b600080fd5b34801561018657600080fd5b5061018f6107f3565b604051808215151515815260200191505060405180910390f35b3480156101b557600080fd5b506101be610806565b6040518082815260200191505060405180910390f35b3480156101e057600080fd5b50610215600480360381019080803573ffffffffffffffffffffffffffffffffffffffff16906020019092919050505061080c565b604051808481526020018315151515815260200182151515158152602001935050505060405180910390f35b34801561024d57600080fd5b50610256610850565b604051808215151515815260200191505060405180910390f35b34801561027c57600080fd5b506102856108f1565b6040518082815260200191505060405180910390f35b3480156102a757600080fd5b506102b06108f7565b6040518082815260200191505060405180910390f35b3480156102d257600080fd5b506102fd600480360381019080803590602001909291908035151590602001909291905050506108fd565b005b34801561030b57600080fd5b50610314610e68565b6040518082815260200191505060405180910390f35b34801561033657600080fd5b5061033f610e6e565b604051808273ffffffffffffffffffffffffffffffffffffffff1673ffffffffffffffffffffffffffffffffffffffff16815260200191505060405180910390f35b34801561038d57600080fd5b506103ac60048036038101908080359060200190929190505050610e94565b604051808215151515815260200191505060405180910390f35b3480156103d257600080fd5b50610407600480360381019080803573ffffffffffffffffffffffffffffffffffffffff169060200190929190505050610eb5565b005b34801561041557600080fd5b5061041e61122a565b005b34801561042c57600080fd5b5061044d60048036038101908080351515906020019092919050505061143e565b005b34801561045b57600080fd5b5061047a6004803603810190808035906020019092919050505061181c565b604051808273ffffffffffffffffffffffffffffffffffffffff1673ffffffffffffffffffffffffffffffffffffffff16815260200191505060405180910390f35b3480156104c857600080fd5b506104fd600480360381019080803573ffffffffffffffffffffffffffffffffffffffff16906020019092919050505061185a565b6040518082815260200191505060405180910390f35b34801561051f57600080fd5b506105286118a6565b6040518082815260200191505060405180910390f35b34801561054a57600080fd5b506105536118ac565b005b34801561056157600080fd5b506105a0600480360381019080803573ffffffffffffffffffffffffffffffffffffffff16906020019092919080359060200190929190505050611b2f565b604051808215151515815260200191505060405180910390f35b3480156105c657600080fd5b506105e560048036038101908080359060200190929190505050611ba8565b005b3480156105f357600080fd5b506105fc61205d565b6040518082815260200191505060405180910390f35b34801561061e57600080fd5b5061063d60048036038101908080359060200190929190505050612063565b005b34801561064b57600080fd5b5061066a6004803603810190808035906020019092919050505061243c565b604051808273ffffffffffffffffffffffffffffffffffffffff1673ffffffffffffffffffffffffffffffffffffffff16815260200191505060405180910390f35b3480156106b857600080fd5b506106c161247a565b6040518082815260200191505060405180910390f35b3480156106e357600080fd5b506106ec612480565b6040518082815260200191505060405180910390f35b61070a6124a1565b005b34801561071857600080fd5b50610721612a26565b604051808215151515815260200191505060405180910390f35b34801561074757600080fd5b50610750612a39565b604051808215151515815260200191505060405180910390f35b34801561077657600080fd5b5061079560048036038101908080359060200190929190505050612a4c565b604051808581526020018481526020018381526020018215151515815260200194505050505060405180910390f35b3480156107d057600080fd5b506107d9612a98565b604051808215151515815260200191505060405180910390f35b600060019054906101000a900460ff1681565b60075481565b60096020528060005260406000206000915090508060000154908060020160009054906101000a900460ff16908060020160019054906101000a900460ff16905083565b600080600090505b600b805490508110156108e857600b8181548110151561087457fe5b9060005260206000200160009054906101000a900473ffffffffffffffffffffffffffffffffffffffff1673ffffffffffffffffffffffffffffffffffffffff163373ffffffffffffffffffffffffffffffffffffffff1614156108db57600191506108ed565b8080600101915050610858565b600091505b5090565b60055481565b60025481565b6000806000806000600960003373ffffffffffffffffffffffffffffffffffffffff1673ffffffffffffffffffffffffffffffffffffffff16815260200190815260200160002060000154141515156109be576040517f08c379a000000000000000000000000000000000000000000000000000000000815260040180806020018281038252601b8152602001807f43616c6c6572206973206e6f74206120636f6e7472696275746f72000000000081525060200191505060405180910390fd5b600060029054906101000a900460ff161515610a42576040517f08c379a00000000000000000000000000000000000000000000000000000000081526004018080602001828103825260198152602001807f526169736520676f616c206973206e6f7420726561636865640000000000000081525060200191505060405180910390fd5b600060019054906101000a900460ff16151515610ac7576040517f08c379a00000000000000000000000000000000000000000000000000000000081526004018080602001828103825260138152602001807f43726f776446756e642069732066726f7a656e0000000000000000000000000081525060200191505060405180910390fd5b600960003373ffffffffffffffffffffffffffffffffffffffff1673ffffffffffffffffffffffffffffffffffffffff16815260200190815260200160002060010186815481101515610b1657fe5b90600052602060002090602091828204019190069054906101000a900460ff16935084151584151514151515610bda576040517f08c379a00000000000000000000000000000000000000000000000000000000081526004018080602001828103825260358152602001807f566f74652076616c7565206d75737420626520646966666572656e742074686181526020017f6e206578697374696e6720766f7465207374617465000000000000000000000081525060400191505060405180910390fd5b6000600c87815481101515610beb57fe5b90600052602060002090600402016002015411925042600c87815481101515610c1057fe5b90600052602060002090600402016002015411159150828015610c31575081155b9050801515610ca8576040517f08c379a000000000000000000000000000000000000000000000000000000000815260040180806020018281038252601d8152602001807f4d696c6573746f6e6520766f74696e67206d757374206265206f70656e00000081525060200191505060405180910390fd5b84600960003373ffffffffffffffffffffffffffffffffffffffff1673ffffffffffffffffffffffffffffffffffffffff16815260200190815260200160002060010187815481101515610cf857fe5b90600052602060002090602091828204019190066101000a81548160ff021916908315150217905550841515610dc657610d9d600960003373ffffffffffffffffffffffffffffffffffffffff1673ffffffffffffffffffffffffffffffffffffffff16815260200190815260200160002060000154600c88815481101515610d7d57fe5b906000526020600020906004020160010154612abe90919063ffffffff16565b600c87815481101515610dac57fe5b906000526020600020906004020160010181905550610e60565b610e3b600960003373ffffffffffffffffffffffffffffffffffffffff1673ffffffffffffffffffffffffffffffffffffffff16815260200190815260200160002060000154600c88815481101515610e1b57fe5b906000526020600020906004020160010154612ad790919063ffffffff16565b600c87815481101515610e4a57fe5b9060005260206000209060040201600101819055505b505050505050565b60065481565b600860009054906101000a900473ffffffffffffffffffffffffffffffffffffffff1681565b6000600454610ead600284612af390919063ffffffff16565b119050919050565b60008060008060019054906101000a900460ff161515610f3d576040517f08c379a00000000000000000000000000000000000000000000000000000000081526004018080602001828103825260178152602001807f43726f776446756e64206973206e6f742066726f7a656e00000000000000000081525060200191505060405180910390fd5b600060019054906101000a900460ff161515610fc1576040517f08c379a00000000000000000000000000000000000000000000000000000000081526004018080602001828103825260178152602001807f43726f776446756e64206973206e6f742066726f7a656e00000000000000000081525060200191505060405180910390fd5b600960008573ffffffffffffffffffffffffffffffffffffffff1673ffffffffffffffffffffffffffffffffffffffff16815260200190815260200160002060020160019054906101000a900460ff169250821515156110af576040517f08c379a00000000000000000000000000000000000000000000000000000000081526004018080602001828103825260258152602001807f537065636966696564206164647265737320697320616c72656164792072656681526020017f756e64656400000000000000000000000000000000000000000000000000000081525060400191505060405180910390fd5b6001600960008673ffffffffffffffffffffffffffffffffffffffff1673ffffffffffffffffffffffffffffffffffffffff16815260200190815260200160002060020160016101000a81548160ff021916908315150217905550600960008573ffffffffffffffffffffffffffffffffffffffff1673ffffffffffffffffffffffffffffffffffffffff16815260200190815260200160002060000154915061118d60055461117f3073ffffffffffffffffffffffffffffffffffffffff163185612af390919063ffffffff16565b612b2b90919063ffffffff16565b90508373ffffffffffffffffffffffffffffffffffffffff166108fc829081150290604051600060405180830381858888f193505050501580156111d5573d6000803e3d6000fd5b508373ffffffffffffffffffffffffffffffffffffffff167f7084f5476618d8e60b11ef0d7d3f06914655adb8793e28ff7f018d4c76d505d5826040518082815260200191505060405180910390a250505050565b60008060008060019054906101000a900460ff161515156112b3576040517f08c379a00000000000000000000000000000000000000000000000000000000081526004018080602001828103825260138152602001807f43726f776446756e642069732066726f7a656e0000000000000000000000000081525060200191505060405180910390fd5b6112bb610850565b92506112c5612a98565b91506112d2600754610e94565b905082806112dd5750815b806112e55750805b151561137f576040517f08c379a000000000000000000000000000000000000000000000000000000000815260040180806020018281038252602a8152602001807f526571756972656420636f6e646974696f6e7320666f7220726566756e64206181526020017f7265206e6f74206d65740000000000000000000000000000000000000000000081525060400191505060405180910390fd5b82156113ad5760008060006101000a81548160ff021916908360028111156113a357fe5b0217905550611400565b81156113db5760016000806101000a81548160ff021916908360028111156113d157fe5b02179055506113ff565b60026000806101000a81548160ff021916908360028111156113f957fe5b02179055505b5b6001600060016101000a81548160ff0219169083151502179055503073ffffffffffffffffffffffffffffffffffffffff1631600581905550505050565b600080600960003373ffffffffffffffffffffffffffffffffffffffff1673ffffffffffffffffffffffffffffffffffffffff16815260200190815260200160002060000154141515156114fa576040517f08c379a000000000000000000000000000000000000000000000000000000000815260040180806020018281038252601b8152602001807f43616c6c6572206973206e6f74206120636f6e7472696275746f72000000000081525060200191505060405180910390fd5b600060029054906101000a900460ff16151561157e576040517f08c379a00000000000000000000000000000000000000000000000000000000081526004018080602001828103825260198152602001807f526169736520676f616c206973206e6f7420726561636865640000000000000081525060200191505060405180910390fd5b600060019054906101000a900460ff16151515611603576040517f08c379a00000000000000000000000000000000000000000000000000000000081526004018080602001828103825260138152602001807f43726f776446756e642069732066726f7a656e0000000000000000000000000081525060200191505060405180910390fd5b600960003373ffffffffffffffffffffffffffffffffffffffff1673ffffffffffffffffffffffffffffffffffffffff16815260200190815260200160002060020160009054906101000a900460ff169050801515821515141515156116f7576040517f08c379a000000000000000000000000000000000000000000000000000000000815260040180806020018281038252602e8152602001807f4578697374696e6720766f7465207374617465206973206964656e746963616c81526020017f20746f20766f74652076616c756500000000000000000000000000000000000081525060400191505060405180910390fd5b81600960003373ffffffffffffffffffffffffffffffffffffffff1673ffffffffffffffffffffffffffffffffffffffff16815260200190815260200160002060020160006101000a81548160ff0219169083151502179055508115156117ba576117af600960003373ffffffffffffffffffffffffffffffffffffffff1673ffffffffffffffffffffffffffffffffffffffff16815260200190815260200160002060000154600754612abe90919063ffffffff16565b600781905550611818565b611811600960003373ffffffffffffffffffffffffffffffffffffffff1673ffffffffffffffffffffffffffffffffffffffff16815260200190815260200160002060000154600754612ad790919063ffffffff16565b6007819055505b5050565b600b8181548110151561182b57fe5b906000526020600020016000915054906101000a900473ffffffffffffffffffffffffffffffffffffffff1681565b6000600960008373ffffffffffffffffffffffffffffffffffffffff1673ffffffffffffffffffffffffffffffffffffffff168152602001908152602001600020600001549050919050565b60045481565b6000806118b7610850565b151561192b576040517f08c379a00000000000000000000000000000000000000000000000000000000081526004018080602001828103825260178152602001807f43616c6c6572206973206e6f742061207472757374656500000000000000000081525060200191505060405180910390fd5b600060019054906101000a900460ff1615156119af576040517f08c379a00000000000000000000000000000000000000000000000000000000081526004018080602001828103825260178152602001807f43726f776446756e64206973206e6f742066726f7a656e00000000000000000081525060200191505060405180910390fd5b600091505b600a80549050821015611af457600a828154811015156119d057fe5b9060005260206000200160009054906101000a900473ffffffffffffffffffffffffffffffffffffffff169050600960008273ffffffffffffffffffffffffffffffffffffffff1673ffffffffffffffffffffffffffffffffffffffff16815260200190815260200160002060020160019054906101000a900460ff161515611ae7576040517f08c379a000000000000000000000000000000000000000000000000000000000815260040180806020018281038252602d8152602001807f4174206c65617374206f6e6520636f6e7472696275746f7220686173206e6f7481526020017f2079657420726566756e6465640000000000000000000000000000000000000081525060400191505060405180910390fd5b81806001019250506119b4565b600860009054906101000a900473ffffffffffffffffffffffffffffffffffffffff1673ffffffffffffffffffffffffffffffffffffffff16ff5b6000600960008473ffffffffffffffffffffffffffffffffffffffff1673ffffffffffffffffffffffffffffffffffffffff16815260200190815260200160002060010182815481101515611b8057fe5b90600052602060002090602091828204019190069054906101000a900460ff16905092915050565b6000806000806000611bb8610850565b1515611c2c576040517f08c379a00000000000000000000000000000000000000000000000000000000081526004018080602001828103825260178152602001807f43616c6c6572206973206e6f742061207472757374656500000000000000000081525060200191505060405180910390fd5b600060029054906101000a900460ff161515611cb0576040517f08c379a00000000000000000000000000000000000000000000000000000000081526004018080602001828103825260198152602001807f526169736520676f616c206973206e6f7420726561636865640000000000000081525060200191505060405180910390fd5b600060019054906101000a900460ff16151515611d35576040517f08c379a00000000000000000000000000000000000000000000000000000000081526004018080602001828103825260138152602001807f43726f776446756e642069732066726f7a656e0000000000000000000000000081525060200191505060405180910390fd5b600c86815481101515611d4457fe5b906000526020600020906004020160030160009054906101000a900460ff16945042600c87815481101515611d7557fe5b906000526020600020906004020160020154119350611db3600c87815481101515611d9c57fe5b906000526020600020906004020160010154610e94565b925084151515611e2b576040517f08c379a00000000000000000000000000000000000000000000000000000000081526004018080602001828103825260168152602001807f4d696c6573746f6e6520616c726561647920706169640000000000000000000081525060200191505060405180910390fd5b7fffffffffffffffffffffffffffffffffffffffffffffffffffffffffffffffff9150600090505b600c80549050811015611ea457600c81815481101515611e6f57fe5b906000526020600020906004020160030160009054906101000a900460ff1615611e97578091505b8080600101915050611e53565b6001820186141515611f44576040517f08c379a00000000000000000000000000000000000000000000000000000000081526004018080602001828103825260348152602001807f4d696c6573746f6e652072657175657374206d75737420626520666f7220666981526020017f72737420756e70616964206d696c6573746f6e6500000000000000000000000081525060400191505060405180910390fd5b6000600c87815481101515611f5557fe5b9060005260206000209060040201600201541415611ff857600086148015611f895750600060039054906101000a900460ff165b15611fb9576001600c87815481101515611f9f57fe5b906000526020600020906004020160020181905550611ff3565b611fce60015442612ad790919063ffffffff16565b600c87815481101515611fdd57fe5b9060005260206000209060040201600201819055505b612055565b8380156120025750825b156120545761202f6120206002600154612af390919063ffffffff16565b42612ad790919063ffffffff16565b600c8781548110151561203e57fe5b9060005260206000209060040201600201819055505b5b505050505050565b60015481565b600080600080600060029054906101000a900460ff1615156120ed576040517f08c379a00000000000000000000000000000000000000000000000000000000081526004018080602001828103825260198152602001807f526169736520676f616c206973206e6f7420726561636865640000000000000081525060200191505060405180910390fd5b600060019054906101000a900460ff16151515612172576040517f08c379a00000000000000000000000000000000000000000000000000000000081526004018080602001828103825260138152602001807f43726f776446756e642069732066726f7a656e0000000000000000000000000081525060200191505060405180910390fd5b42600c8681548110151561218257fe5b9060005260206000209060040201600201541093506121c0600c868154811015156121a957fe5b906000526020600020906004020160010154610e94565b9250600c858154811015156121d157fe5b906000526020600020906004020160030160009054906101000a900460ff1691508380156121fd575082155b8015612207575081155b156123a1576001600c8681548110151561221d57fe5b906000526020600020906004020160030160006101000a81548160ff021916908315150217905550600c8581548110151561225457fe5b9060005260206000209060040201600001549050600860009054906101000a900473ffffffffffffffffffffffffffffffffffffffff1673ffffffffffffffffffffffffffffffffffffffff166108fc829081150290604051600060405180830381858888f193505050501580156122d0573d6000803e3d6000fd5b50600860009054906101000a900473ffffffffffffffffffffffffffffffffffffffff1673ffffffffffffffffffffffffffffffffffffffff167f7084f5476618d8e60b11ef0d7d3f06914655adb8793e28ff7f018d4c76d505d5826040518082815260200191505060405180910390a2600161235b86600c80549050612abe90919063ffffffff16565b141561239c57600860009054906101000a900473ffffffffffffffffffffffffffffffffffffffff1673ffffffffffffffffffffffffffffffffffffffff16ff5b612435565b6040517f08c379a00000000000000000000000000000000000000000000000000000000081526004018080602001828103825260268152602001807f726571756972656420636f6e646974696f6e732077657265206e6f742073617481526020017f697366696564000000000000000000000000000000000000000000000000000081525060400191505060405180910390fd5b5050505050565b600a8181548110151561244b57fe5b906000526020600020016000915054906101000a900473ffffffffffffffffffffffffffffffffffffffff1681565b60035481565b60008060009054906101000a900460ff16600281111561249c57fe5b905090565b600080600060025442111580156124c55750600060029054906101000a900460ff16155b1515612539576040517f08c379a00000000000000000000000000000000000000000000000000000000081526004018080602001828103825260188152602001807f43726f776446756e64206973206e6f74206f6e676f696e67000000000000000081525060200191505060405180910390fd5b600060019054906101000a900460ff161515156125be576040517f08c379a00000000000000000000000000000000000000000000000000000000081526004018080602001828103825260138152602001807f43726f776446756e642069732066726f7a656e0000000000000000000000000081525060200191505060405180910390fd5b6125d334600454612ad790919063ffffffff16565b92506003548311151515612675576040517f08c379a00000000000000000000000000000000000000000000000000000000081526004018080602001828103825260248152602001807f436f6e747269627574696f6e206578636565647320746865207261697365206781526020017f6f616c2e0000000000000000000000000000000000000000000000000000000081525060400191505060405180910390fd5b600654341015915060035483149050818061268d5750805b151561274d576040517f08c379a000000000000000000000000000000000000000000000000000000000815260040180806020018281038252604d8152602001807f6d73672e76616c75652067726561746572207468616e206d696e696d756d2c2081526020017f6f72206d73672e76616c7565203d3d2072656d61696e696e6720616d6f756e7481526020017f20746f206265207261697365640000000000000000000000000000000000000081525060600191505060405180910390fd5b6000600960003373ffffffffffffffffffffffffffffffffffffffff1673ffffffffffffffffffffffffffffffffffffffff16815260200190815260200160002060000154141561290857608060405190810160405280348152602001600c805490506040519080825280602002602001820160405280156127de5781602001602082028038833980820191505090505b50815260200160001515815260200160001515815250600960003373ffffffffffffffffffffffffffffffffffffffff1673ffffffffffffffffffffffffffffffffffffffff168152602001908152602001600020600082015181600001556020820151816001019080519060200190612859929190612b41565b5060408201518160020160006101000a81548160ff02191690831515021790555060608201518160020160016101000a81548160ff021916908315150217905550905050600a3390806001815401808255809150509060018203906000526020600020016000909192909190916101000a81548173ffffffffffffffffffffffffffffffffffffffff021916908373ffffffffffffffffffffffffffffffffffffffff160217905550506129a4565b61295d34600960003373ffffffffffffffffffffffffffffffffffffffff1673ffffffffffffffffffffffffffffffffffffffff16815260200190815260200160002060000154612ad790919063ffffffff16565b600960003373ffffffffffffffffffffffffffffffffffffffff1673ffffffffffffffffffffffffffffffffffffffff168152602001908152602001600020600001819055505b8260048190555060035460045414156129d3576001600060026101000a81548160ff0219169083151502179055505b3373ffffffffffffffffffffffffffffffffffffffff167f2da466a7b24304f47e87fa2e1e5a81b9831ce54fec19055ce277ca2f39ba42c4346040518082815260200191505060405180910390a2505050565b600060029054906101000a900460ff1681565b600060039054906101000a900460ff1681565b600c81815481101515612a5b57fe5b90600052602060002090600402016000915090508060000154908060010154908060020154908060030160009054906101000a900460ff16905084565b60006002544210158015612ab95750600060029054906101000a900460ff16155b905090565b6000828211151515612acc57fe5b818303905092915050565b60008183019050828110151515612aea57fe5b80905092915050565b600080831415612b065760009050612b25565b8183029050818382811515612b1757fe5b04141515612b2157fe5b8090505b92915050565b60008183811515612b3857fe5b04905092915050565b82805482825590600052602060002090601f01602090048101928215612bd65791602002820160005b83821115612ba757835183826101000a81548160ff0219169083151502179055509260200192600101602081600001049283019260010302612b6a565b8015612bd45782816101000a81549060ff0219169055600101602081600001049283019260010302612ba7565b505b509050612be39190612be7565b5090565b612c1491905b80821115612c1057600081816101000a81549060ff021916905550600101612bed565b5090565b905600a165627a7a7230582051351396444f74bc4a8b3921cf045e1b2aea376db653835bbe15cc04725c9b3d0029a165627a7a72305820934808680be9c81f1fba40415b4ca3b9b11aaa579220c370ce09f0bdcdd30d220029",
  "source": "pragma solidity ^0.4.24;\nimport \"./CrowdFund.sol\";\n\ncontract CrowdFundFactory {\n    address[] crowdfunds;\n\n    event ContractCreated(address newAddress);\n\n    function createCrowdFund (\n        uint raiseGoalAmount, \n        address payOutAddress, \n        address[] trusteesAddresses, \n        uint[] allMilestones,\n        uint durationInSeconds,\n        uint milestoneVotingPeriodInSeconds,\n        bool immediateFirstMilestonePayout\n        ) public returns(address) {\n        address newCrowdFundContract = new CrowdFund(\n            raiseGoalAmount,\n            payOutAddress,\n            trusteesAddresses,\n            allMilestones,\n            durationInSeconds,\n            milestoneVotingPeriodInSeconds,\n            immediateFirstMilestonePayout\n        );\n        emit ContractCreated(newCrowdFundContract);\n        crowdfunds.push(newCrowdFundContract);\n        return newCrowdFundContract;\n    }\n}",
  "sourcePath": "/Users/will/Documents/grant-monorepo/contract/contracts/CrowdFundFactory.sol",
  "compiler": {
    "name": "solc",
    "version": "0.4.24+commit.e67f0147.Emscripten.clang"
  },
  "schemaVersion": "2.0.1",
  "updatedAt": "2018-11-19T19:59:35.976Z"
}